{
  "contractName": "InterchainAccountRouter",
  "abi": [
    {
      "constant": false,
      "inputs": [],
      "name": "createAccount",
      "outputs": [
        {
          "internalType": "address",
          "name": "",
          "type": "address"
        }
      ],
      "payable": false,
      "stateMutability": "nonpayable",
      "type": "function"
    },
    {
      "constant": false,
      "inputs": [
        {
          "internalType": "bytes",
          "name": "txBytes",
          "type": "bytes"
        }
      ],
      "name": "receiveRunTxPacket",
      "outputs": [
        {
          "internalType": "bool",
          "name": "",
          "type": "bool"
        }
      ],
      "payable": false,
      "stateMutability": "nonpayable",
      "type": "function"
    }
  ],
  "bytecode": "0x608060405234801561001057600080fd5b50611028806100206000396000f3fe608060405234801561001057600080fd5b50600436106100365760003560e01c80635f5829631461003b5780639dca362f1461010e575b600080fd5b6100f46004803603602081101561005157600080fd5b810190808035906020019064010000000081111561006e57600080fd5b82018360208201111561008057600080fd5b803590602001918460018302840111640100000000831117156100a257600080fd5b91908080601f016020809104026020016040519081016040528093929190818152602001838380828437600081840152601f19601f820116905080830192505050505050509192919290505050610158565b604051808215151515815260200191505060405180910390f35b610116610188565b604051808273ffffffffffffffffffffffffffffffffffffffff1673ffffffffffffffffffffffffffffffffffffffff16815260200191505060405180910390f35b6000610162610640565b61016b83610214565b9050610176816103c2565b5061018081610426565b915050919050565b60008060405161019790610694565b604051809103906000f0801580156101b3573d6000803e3d6000fd5b50905060016000808373ffffffffffffffffffffffffffffffffffffffff1673ffffffffffffffffffffffffffffffffffffffff16815260200190815260200160002060006101000a81548160ff0219169083151502179055508091505090565b61021c610640565b6000806000606085806020019051608081101561023857600080fd5b810190808051906020019092919080519060200190929190805190602001909291908051604051939291908464010000000082111561027657600080fd5b8382019150602082018581111561028c57600080fd5b82518660018202830111640100000000821117156102a957600080fd5b8083526020830192505050908051906020019080838360005b838110156102dd5780820151818401526020810190506102c2565b50505050905090810190601f16801561030a5780820380516001836020036101000a031916815260200191505b5060405250505083935082925080905080945081955082965083975050505050610332610640565b84816000019073ffffffffffffffffffffffffffffffffffffffff16908173ffffffffffffffffffffffffffffffffffffffff168152505083816020019073ffffffffffffffffffffffffffffffffffffffff16908173ffffffffffffffffffffffffffffffffffffffff1681525050828160400181815250508181606001819052508095505050505050919050565b6000806000836000015173ffffffffffffffffffffffffffffffffffffffff1673ffffffffffffffffffffffffffffffffffffffff16815260200190815260200160002060009054906101000a900460ff1661041d57600080fd5b60019050919050565b6000806060836000015173ffffffffffffffffffffffffffffffffffffffff16630c47cda38560200151866040015187606001516040518463ffffffff1660e01b8152600401808473ffffffffffffffffffffffffffffffffffffffff1673ffffffffffffffffffffffffffffffffffffffff16815260200183815260200180602001828103825283818151815260200191508051906020019080838360005b838110156104e15780820151818401526020810190506104c6565b50505050905090810190601f16801561050e5780820380516001836020036101000a031916815260200191505b50945050505050600060405180830381600087803b15801561052f57600080fd5b505af1158015610543573d6000803e3d6000fd5b505050506040513d6000823e3d601f19601f82011682018060405250604081101561056d57600080fd5b81019080805190602001909291908051604051939291908464010000000082111561059757600080fd5b838201915060208201858111156105ad57600080fd5b82518660018202830111640100000000821117156105ca57600080fd5b8083526020830192505050908051906020019080838360005b838110156105fe5780820151818401526020810190506105e3565b50505050905090810190601f16801561062b5780820380516001836020036101000a031916815260200191505b50604052505050915091508192505050919050565b6040518060800160405280600073ffffffffffffffffffffffffffffffffffffffff168152602001600073ffffffffffffffffffffffffffffffffffffffff16815260200160008152602001606081525090565b610952806106a28339019056fe60806040526100126100d260201b60201c565b6000806101000a81548173ffffffffffffffffffffffffffffffffffffffff021916908373ffffffffffffffffffffffffffffffffffffffff1602179055506000809054906101000a900473ffffffffffffffffffffffffffffffffffffffff1673ffffffffffffffffffffffffffffffffffffffff16600073ffffffffffffffffffffffffffffffffffffffff167f8be0079c531659141344cd1fd0a4f28419497f9722a3daafe3b4186f6b6457e060405160405180910390a36100da565b600033905090565b610869806100e96000396000f3fe608060405234801561001057600080fd5b50600436106100575760003560e01c80630c47cda31461005c578063715018a6146101c55780638da5cb5b146101cf5780638f32d59b14610219578063f2fde38b1461023b575b600080fd5b61013f6004803603606081101561007257600080fd5b81019080803573ffffffffffffffffffffffffffffffffffffffff16906020019092919080359060200190929190803590602001906401000000008111156100b957600080fd5b8201836020820111156100cb57600080fd5b803590602001918460018302840111640100000000831117156100ed57600080fd5b91908080601f016020809104026020016040519081016040528093929190818152602001838380828437600081840152601f19601f82011690508083019250505050505050919291929050505061027f565b604051808315151515815260200180602001828103825283818151815260200191508051906020019080838360005b8381101561018957808201518184015260208101905061016e565b50505050905090810190601f1680156101b65780820380516001836020036101000a031916815260200191505b50935050505060405180910390f35b6101cd61047c565b005b6101d76105b5565b604051808273ffffffffffffffffffffffffffffffffffffffff1673ffffffffffffffffffffffffffffffffffffffff16815260200191505060405180910390f35b6102216105de565b604051808215151515815260200191505060405180910390f35b61027d6004803603602081101561025157600080fd5b81019080803573ffffffffffffffffffffffffffffffffffffffff16906020019092919050505061063c565b005b6000606061028b6105de565b6102fd576040517f08c379a00000000000000000000000000000000000000000000000000000000081526004018080602001828103825260208152602001807f4f776e61626c653a2063616c6c6572206973206e6f7420746865206f776e657281525060200191505060405180910390fd5b8473ffffffffffffffffffffffffffffffffffffffff1683308660405160200180806020018473ffffffffffffffffffffffffffffffffffffffff1673ffffffffffffffffffffffffffffffffffffffff168152602001838152602001828103825285818151815260200191508051906020019080838360005b83811015610392578082015181840152602081019050610377565b50505050905090810190601f1680156103bf5780820380516001836020036101000a031916815260200191505b509450505050506040516020818303038152906040526040518082805190602001908083835b6020831061040857805182526020820191506020810190506020830392506103e5565b6001836020036101000a0380198251168184511680821785525050505050509050019150506000604051808303816000865af19150503d806000811461046a576040519150601f19603f3d011682016040523d82523d6000602084013e61046f565b606091505b5091509150935093915050565b6104846105de565b6104f6576040517f08c379a00000000000000000000000000000000000000000000000000000000081526004018080602001828103825260208152602001807f4f776e61626c653a2063616c6c6572206973206e6f7420746865206f776e657281525060200191505060405180910390fd5b600073ffffffffffffffffffffffffffffffffffffffff166000809054906101000a900473ffffffffffffffffffffffffffffffffffffffff1673ffffffffffffffffffffffffffffffffffffffff167f8be0079c531659141344cd1fd0a4f28419497f9722a3daafe3b4186f6b6457e060405160405180910390a360008060006101000a81548173ffffffffffffffffffffffffffffffffffffffff021916908373ffffffffffffffffffffffffffffffffffffffff160217905550565b60008060009054906101000a900473ffffffffffffffffffffffffffffffffffffffff16905090565b60008060009054906101000a900473ffffffffffffffffffffffffffffffffffffffff1673ffffffffffffffffffffffffffffffffffffffff166106206106c2565b73ffffffffffffffffffffffffffffffffffffffff1614905090565b6106446105de565b6106b6576040517f08c379a00000000000000000000000000000000000000000000000000000000081526004018080602001828103825260208152602001807f4f776e61626c653a2063616c6c6572206973206e6f7420746865206f776e657281525060200191505060405180910390fd5b6106bf816106ca565b50565b600033905090565b600073ffffffffffffffffffffffffffffffffffffffff168173ffffffffffffffffffffffffffffffffffffffff161415610750576040517f08c379a000000000000000000000000000000000000000000000000000000000815260040180806020018281038252602681526020018061080f6026913960400191505060405180910390fd5b8073ffffffffffffffffffffffffffffffffffffffff166000809054906101000a900473ffffffffffffffffffffffffffffffffffffffff1673ffffffffffffffffffffffffffffffffffffffff167f8be0079c531659141344cd1fd0a4f28419497f9722a3daafe3b4186f6b6457e060405160405180910390a3806000806101000a81548173ffffffffffffffffffffffffffffffffffffffff021916908373ffffffffffffffffffffffffffffffffffffffff1602179055505056fe4f776e61626c653a206e6577206f776e657220697320746865207a65726f2061646472657373a265627a7a7231582074358db9c945e5c9433b4fb6ef8a46a60b428e2e781b2da4780f2e44168acea564736f6c634300050c0032a265627a7a7231582090378d862840a51f43d8236ab440fffe2111173b3ab8dfe6b5301f917b4c1bae64736f6c634300050c0032",
  "source": "pragma solidity ^0.5.12;\n\nimport \"./InterchainAccount.sol\";\n\ncontract InterchainAccountRouter {\n  struct InterchainAccountTx {\n    address from;\n    address recipient;\n    uint256 value;\n    bytes data;\n  }\n\n  mapping (address => bool) interchainAccounts;\n\n  function createAccount() public returns (address) {\n    InterchainAccount iaContract = new InterchainAccount();\n    interchainAccounts[address(iaContract)] = true;\n    return address(iaContract);\n  }\n  // generateAddress(identifier: Identifier, salt: Uint8Array): Uint8Array\n\n  function receiveRunTxPacket(bytes memory txBytes) public returns (bool) {\n    InterchainAccountTx memory interchainAccountTx = deserializeTx(txBytes);\n    authenticateTx(interchainAccountTx);\n    return runTx(interchainAccountTx);\n  }\n\n  function deserializeTx(bytes memory txBytes) private pure returns (InterchainAccountTx memory) {\n    address from;\n    address recipient;\n    uint256 value;\n    bytes memory data;\n    (from, recipient, value, data) = abi.decode(txBytes, (address, address, uint256, bytes));\n    InterchainAccountTx memory interchainAccountTx;\n    interchainAccountTx.from = from;\n    interchainAccountTx.recipient = recipient;\n    interchainAccountTx.value = value;\n    interchainAccountTx.data = data;\n    return interchainAccountTx;\n  }\n\n  function authenticateTx(InterchainAccountTx memory interchainAccountTx) private view returns (bool) {\n    require(interchainAccounts[interchainAccountTx.from]);\n    return true;\n  }\n\n  function runTx(InterchainAccountTx memory interchainAccountTx) private returns (bool) {\n    (bool success, bytes memory _) = InterchainAccount(interchainAccountTx.from).runTx(interchainAccountTx.recipient, interchainAccountTx.value, interchainAccountTx.data);\n    return success;\n  }\n}\n",
  "sourcePath": "/Users/junghwanyun/ethereum-interchain-account/contracts/InterchainAccountRouter.sol",
  "compiler": {
    "name": "solc",
    "version": "0.5.12+commit.7709ece9.Emscripten.clang"
  },
  "schemaVersion": "3.0.19",
  "updatedAt": "2019-12-01T15:35:18.319Z",
  "networkType": "ethereum",
  "devdoc": {
    "methods": {}
  },
  "userdoc": {
    "methods": {}
  }
}